S00F0000446973706C61792E737265633F
S11300000C9461000C947E000C947E000C947E0091
S11300100C947E000C947E000C947E000C947E0064
S11300200C947E000C947E000C947E000C947E0054
S11300300C947E000C947E000C947E000C947E0044
S11300400C947E000C947E000C940D020C947E00A3
S11300500C947E000C947E000C947E000C947E0024
S11300600C947E000C947E0008000000BE9224498B
S1130070123EABAAAA2ABECDCCCC4C3E00000080D6
S1130080BEABAAAAAA3E00000000BF000000803F49
S11300900000000000084178D3BB4387D1133D1909
S11300A00E3CC3BD4282AD2B3E68EC8276BED98F36
S11300B0E1A93E4C80EFFFBE01C4FF7F3F0000007A
S11300C0000011241FBECFEFD8E0DEBFCDBF11E08A
S11300D0A0E0B1E0E8E9FDE002C005900D92A63190
S11300E0B107D9F722E0A6E1B1E001C01D92A8331F
S11300F0B207E1F70E9424030C94CA060C94000092
S113010084B18C6284B981E58CBD08958EBD0DB433
S113011007FEFDCF08952F923F924F925F926F9208
S11301207F928F929F92AF92BF92CF92DF92EF9283
S1130130FF920F931F93CF93DF93CDB7DEB76497EE
S11301400FB6F894DEBF0FBECDBF7C8B6B8BFE0168
S113015031962CE0DF011D922A95E9F704961C01E3
S11301607E01B5E0EB0EF11C5E01E3E0AE0EB11CC6
S11301706894CC24C2F8D12C0F2EFAE08F2E912C47
S1130180F02DD1018C91882309F496C0F1013497A4
S11301904080518062807380C301B2010E94780460
S11301A0062F172F072E000C880B990B0E94B00402
S11301B09B01AC01C301B2010E9494036D877E8749
S11301C08F87988BC301B2010E9460050E94780456
S11301D02B013C01FB013196FA8BE98B20E030E0E6
S11301E0A9016D857E858F8598890E9401048111FE
S11301F022C029893A89121613060CF06AC09601A6
S1130200215031092419350941E050E04C0F5D1F9C
S1130210240F351FF701802F912FB4010E949906F6
S1130220DC01A050BF4F8C918293862F972FE21749
S1130230F30799F74EC0802F912FB4010E949906BD
S1130240FC01E050FF4F80818460D5018C93862FA0
S1130250972FE989FA893297CCF096012250310917
S11302602419350941E050E04C0F5D1F240F351F60
S1130270F501B4010E949906DC01A050BF4F8C9196
S11302808293862F972FE217F30799F720E030E047
S113029040E251E46D857E858F8598890E94B8057A
S11302A00E9425060E947804FB01E050FF4F8081E4
S11302B0F701319780830DC0F701349750E15193D2
S11302C087EC90E00197F1F700C00000EE15FF0500
S11302D0A9F795E0290E311CA4E0EA0EF11CB4E064
S11302E0CB0ED11CE4E0AE0EB11CF0E1CF16D1046C
S11302F009F047CFDE011196EB89FC899F01245F49
S11303003F4F8D918193E217F307D9F764960FB6A7
S1130310F894DEBF0FBECDBFDF91CF911F910F9137
S1130320FF90EF90DF90CF90BF90AF909F908F9011
S11303307F906F905F904F903F902F90089590938F
S1130340C5008093C400E0ECF0E08081826080838B
S113035086E08093C20088E98093C1007894089570
S1130360FC016115710551F0680F791F80E090E080
S113037021918227E617F707D9F7089580E090E0E6
S11303800895CF93DF93FC0190819B3D31F4DA0112
S1130390AA5FBE4F82E08C933DC0DA019C938181B9
S11303A08823C4F0EA01CA5FDE4F18828181229754
S11303B088834091160150911701425051092297A8
S11303C059834883BF016E5F7F4FCD0101960E9420
S11303D0C10620C0803AF1F4EA01CA5FDE4F81E031
S11303E0888382812597888383852496888344859E
S11303F050E0542F44272397598348838585480F19
S1130400511D59834883BF01625F7F4FCD0101961F
S11304100E94C106DF91CF9108951F920F920FB6EB
S11304200F9211240F931F932F933F934F935F9336
S11304306F937F938F939F93AF93BF93EF93FF93A8
S1130440CF93DF93CDB7DEB7C750D140DEBFCDBF6A
S11304501091C60080911A01823029F128F4882372
S113046051F0813079F0D4C08430C1F168F1853025
S113047009F45EC0CDC0153A09F0CAC081E080938A
S11304801A01C6C01A3521F482E080931A01C0C053
S113049010921A011092190110921801109217016A
S11304A010921601B5C0103821F483E080931A012C
S11304B0AFC010921A0110921901109218011092F3
S11304C0170110921601A4C0812F90E09093170198
S11304D08093160184E080931A019AC080911801D8
S11304E09091190160911601709117018617970771
S11304F050F4FC01E75DFE4F1083019690931901BF
S11305008093180185C089E291E00E94B0018113B3
S113051004C085E080931A017BC010921A011092E6
S1130520190110921801109217011092160170C04F
S1130530143009F063C06091160170911701AE0187
S11305404F5F5F4F89E291E00E94C1018D8182FF7C
S113055004C091E090932D0202C010922D0281FFFD
S113056004C091E09093320202C01092320280FFE4
S113057004C081E08093370202C01092370209E27E
S113058012E06A8170E080E090E00E94AE0420E016
S113059030E040E251E40E9406042FE632E143E8F1
S11305A05AE30E949503F8016083718382839383E5
S11305B06B8170E080E090E00E94AE04F8016583F6
S11305C07683878390876C8170E080E090E00E945E
S11305D0AE0420E030E040E251E40E9406042FE63D
S11305E032E143E85AE30E949503F8016287738776
S11305F084879587109228011092270110921A017E
S113060010921901109218011092170110921601FC
S1130610C95FDE4F0FB6F894DEBF0FBECDBFDF91CA
S1130620CF91FF91EF91BF91AF919F918F917F9166
S11306306F915F914F913F912F911F910F910F9067
S11306400FBE0F901F9018958FE4809366000E9450
S1130650800088E090E00E949F01412C512CCC2422
S1130660C394D12C0F2EFBE1AF2EF1E0BF2EF02D61
S11306700F2EFAE08F2EF1E09F2EF02D642C752CB6
S113068075018401C62DD72D2A98C830D10574F47C
S1130690C601F801008002C0880F991F0A94E2F78E
S11306A00E94860080E00E9486000DC080E00E94C7
S11306B08600C601F801008002C0880F991F0A94C1
S11306C0E2F70E948600F70181917F010E94860073
S11306D02A9ACB30D10534F48FEC97E00197F1F7E7
S11306E000C0000021960F5F1F4FCC30D10561F68A
S11306F0B50189E292E00E948B00809127019091DC
S11307002801019690932801809327018132934018
S113071008F4B6CFE9E2F2E014821186168640921C
S1130720270150922801ACCF5058BB27AA270E941A
S1130730AC030C9426050E94180538F00E941F058E
S113074020F039F49F3F19F426F40C9415050EF4A7
S1130750E095E7FB0C940F05E92F0E94370558F349
S1130760BA17620773078407950720F079F4A6F592
S11307700C9459050EF4E0950B2EBA2FA02D0B0105
S1130780B90190010C01CA01A0011124FF27591BD2
S113079099F0593F50F4503E68F11A16F040A22FD8
S11307A0232F342F4427585FF3CF46953795279549
S11307B0A795F0405395C9F77EF41F16BA0B620B48
S11307C0730B840BBAF09150A1F0FF0FBB1F661F8F
S11307D0771F881FC2F70EC0BA0F621F731F841FD2
S11307E048F4879577956795B795F7959E3F08F0F8
S11307F0B0CF9395880F08F09927EE0F97958795BA
S113080008950E94EB0408F481E008950E941A04FC
S11308100C9426050E941F0558F00E94180540F00C
S113082029F45F3F29F00C940F0551110C945A05DB
S11308300C9415050E94370568F39923B1F35523E9
S113084091F3951B550BBB27AA27621773078407DF
S113085038F09F5F5F4F220F331F441FAA1FA9F375
S113086035D00E2E3AF0E0E832D091505040E69563
S1130870001CCAF72BD0FE2F29D0660F771F881FC4
S1130880BB1F261737074807AB07B0E809F0BB0BB7
S1130890802DBF01FF2793585F4F3AF09E3F5105CB
S11308A078F00C940F050C945A055F3FE4F3983EDE
S11308B0D4F3869577956795B795F7959F5FC9F7B4
S11308C0880F911D9695879597F90895E1E0660F35
S11308D0771F881FBB1F621773078407BA0720F0AE
S11308E0621B730B840BBA0BEE1F88F7E095089517
S11308F00E947F046894B1110C945A0508950E94D3
S11309003F0588F09F5798F0B92F9927B751B0F059
S1130910E1F0660F771F881F991F1AF0BA95C9F77F
S113092014C0B13091F00E945905B1E008950C94BF
S11309305905672F782F8827B85F39F0B93FCCF372
S1130940869577956795B395D9F73EF490958095FC
S1130950709561957F4F8F4F9F4F0895E89409C01C
S113096097FB3EF490958095709561957F4F8F4FDE
S11309709F4F9923A9F0F92F96E9BB279395F695F4
S1130980879577956795B795F111F8CFFAF4BB0F72
S113099011F460FF1BC06F5F7F4F8F4F9F4F16C0D6
S11309A0882311F096E911C0772321F09EE8872F60
S11309B0762F05C0662371F096E8862F70E060E01C
S11309C02AF09A95660F771F881FDAF7880F969595
S11309D0879597F90895990F0008550FAA0BE0E839
S11309E0FEEF16161706E807F907C0F012161306ED
S11309F0E407F50798F0621B730B840B950B39F42D
S1130A000A2661F0232B242B252B21F408950A2692
S1130A1009F4A140A6958FEF811D811D089597F9D2
S1130A209F6780E870E060E008959FEF80EC089590
S1130A3000240A94161617061806090608950024B9
S1130A400A9412161306140605060895092E039433
S1130A50000C11F4882352F0BB0F40F4BF2B11F4A7
S1130A6060FF04C06F5F7F4F8F4F9F4F089557FD06
S1130A709058440F551F59F05F3F71F04795880F08
S1130A8097FB991F61F09F3F79F08795089512169F
S1130A9013061406551FF2CF4695F1DF08C016164B
S1130AA017061806991FF1CF8695710561050894FC
S1130AB00895E894BB2766277727CB0197F9089513
S1130AC00E94700529ED3BE54EED5EE30C94B805FC
S1130AD016F00C9464060C94150568940C940F0598
S1130AE00E943F05A8F39923C1F3AEF3DF93CF939C
S1130AF01F930F93FF92C92FDD2788232AF0219794
S1130B00660F771F881FDAF720E030E040E85FEBDC
S1130B109FE3883920F0803E38F021968F770E9439
S1130B209503E8E6F0E004C00E949503E5E9F0E0EF
S1130B300E9472068B01BE01EC01FB2E6F577109F6
S1130B407595771F880B990B0E94B00428E132E752
S1130B5041E35FE30E94CB05AF2D9801AE01FF9006
S1130B600F911F91CF91DF910E94AC030C94260545
S1130B700E94CB050C9426050E94180538F00E94AB
S1130B801F0520F0952311F00C940F050C94150506
S1130B9011240C945A050E94370570F3959FC1F3F4
S1130BA0950F50E0551F629FF001729FBB27F00D17
S1130BB0B11D639FAA27F00DB11DAA1F649F66276C
S1130BC0B00DA11D661F829F2227B00DA11D621FBB
S1130BD0739FB00DA11D621F839FA00D611D221F75
S1130BE0749F3327A00D611D231F849F600D211D59
S1130BF0822F762F6A2F11249F5750409AF0F1F0DC
S1130C0088234AF0EE0FFF1FBB1F661F771F881F44
S1130C1091505040A9F79E3F510580F00C940F0568
S1130C200C945A055F3FE4F3983ED4F38695779588
S1130C306795B795F795E7959F5FC1F7FE2B880FEA
S1130C40911D9695879597F908950E943F05E8F0C0
S1130C509E37E8F09639B8F49E3848F4672F782F19
S1130C608827985FF9CF86957795679593959539F9
S1130C70D0F3B62FB1706B0F711D811D20F48795D1
S1130C807795679593950C9449060C9464060C9497
S1130C905A05882371F4772321F09850872B762FF7
S1130CA007C0662311F499270DC09051862B70E07C
S1130CB060E02AF09A95660F771F881FDAF7880F8D
S1130CC09695879597F908959F3F31F0915020F4B8
S1130CD0879577956795B795880F911D9695879514
S1130CE097F90895DF93CF931F930F93FF92EF9299
S1130CF0DF927B018C01689406C0DA2EEF010E941A
S1130D00CB05FE01E894A591259135914591559126
S1130D10A6F3EF010E94AC03FE019701A801DA9447
S1130D2069F7DF90EF90FF900F911F91CF91DF91C2
S1130D30089597FB072E16F4009407D077FD09D089
S1130D400E94AD0607FC05D03EF4909581959F4F17
S1130D500895709561957F4F0895AA1BBB1B51E1BF
S1130D6007C0AA1FBB1FA617B70710F0A61BB70B17
S1130D70881F991F5A95A9F780959095BC01CD01BC
S1130D800895FB01DC0102C001900D9241505040D6
S10B0D90D8F70895F894FFCF91
S1130D98EB88B3BAD87A7BE8FBFA070506040300A4
S1090DA802010705060428
S9030000FC
