S01000006169726D657465722E73726563BB
S11300000C9434000C9451000C9451000C94510045
S11300100C9451000C9451000C9451000C94510018
S11300200C9451000C9451000C9451000C94510008
S11300300C9451000C9451000C9451000C945100F8
S11300400C9451000C9451000C947D000C945100BC
S11300500C9451000C9451000C9451000C945100D8
S11300600C9451000C94510011241FBECFEFD8E022
S1130070DEBFCDBF11E0A0E0B1E0E6ECF1E002C0EC
S113008005900D92AC30B107D9F721E0ACE0B1E0B6
S113009001C01D92AD30B207E1F70E94CC000C9470
S11300A0E1000C9400009093C5008093C40086E0A6
S11300B08093C20088E98093C10078940895E0ECAD
S11300C0F0E0908195FFFDCF8093C60008950F93D3
S11300D01F93CF93DF93EC016115710549F08C01F7
S11300E0060F171F89910E945F00C017D107D1F72F
S11300F0DF91CF911F910F9108951F920F920FB628
S11301000F9211242F933F934F935F936F937F9399
S11301108F939F93AF93BF93EF93FF938091C60008
S1130120E0E0F1E0808780910C018187E4E0F1E078
S11301302AE031E080E091918927E217F307D9F7AB
S113014080930A016BE070E080E091E00E94670018
S1130150FF91EF91BF91AF919F918F917F916F919B
S11301605F914F913F912F910F900FBE0F901F9071
S1130170189510927C0084E880937A000895EAE749
S1130180F0E0808180648083808186FDFDCF809152
S1130190780090917900089583E390E00E945300E1
S11301A00E94B9000E94BF00969587959695879501
S11301B080930C018FE097E20197F1F700C00000F3
S10901C0F1CFF894FFCF1B
S10F01C6A55A800600A011FF00000000F4
S9030000FC
